:020000040800F2
:10000000A0370020392D0008490C00084B0C0008CF
:100010004F0C0008530C0008570C000800000000AB
:100020000000000000000000000000005B0C000861
:100030005D0C0008000000005F0C0008610C000867
:10004000532D0008690C0008532D0008532D00089B
:10005000532D0008532D0008532D0008532D000880
:10006000532D0008532D0008532D0008532D000870
:10007000532D0008532D0008532D0008532D000860
:10008000532D0008532D0008532D0008532D000850
:10009000532D0008532D0008532D0008532D000840
:1000A000532D0008532D0008532D0008532D000830
:1000B000532D0008532D0008532D0008532D000820
:1000C000532D0008532D0008532D0008532D000810
:1000D000532D0008532D0008532D0008532D000800
:1000E000532D0008532D0008532D000800F002F88E
:1000F00000F03CF80AA090E8000C82448344AAF186
:100100000107DA4501D100F031F8AFF2090EBAE883
:100110000F0013F0010F18BFFB1A43F0010318473B
:100120000C8600002C860000103A24BF78C878C1E5
:10013000FAD8520724BF30C830C144BF04680C60ED
:10014000704700000023002400250026103A28BF35
:1001500078C1FBD8520728BF30C148BF0B60704739
:100160001FB504F0C6FF1FBD10B510BD03F0EEFCB7
:100170001146FFF7F5FF00F06EFB03F00CFD03B432
:10018000FFF7F2FF03BC03F011FD00002DE9F0477B
:1001900005460C460021284604F0B7FF7ED24FF0FA
:1001A0008041284604F06CFD07463946284604F095
:1001B00067FD8146394604F0F5FC80464FF07C51DE
:1001C00004F0D0FE06463146284604F059FD81462B
:1001D000314604F0E7FC80464FF07C5104F0C2FE4B
:1001E00007463946284604F04BFD8146394604F05F
:1001F000D9FC80464FF07C5104F0B4FE06463146EF
:10020000284604F03DFD8146314604F0CBFC804693
:100210004FF07C5104F0A6FE07463946284604F00C
:100220002FFD8146394604F0BDFC80464FF07C51DD
:1002300004F098FE06463146284604F021FD81462A
:10024000314604F0AFFC80464FF07C5104F08AFE4A
:1002500007463946284604F013FD8146394604F026
:10026000A1FC80464FF07C5104F07CFE06463146EE
:10027000284604F005FD8146314604F093FC804693
:100280004FF07C5104F06EFE07463946284604F0D4
:10029000F7FC8146394604F085FC00E016E0804614
:1002A0004FF07C5104F05EFE06463146284604F0CD
:1002B000E7FC8146314604F075FC80464FF07C51E6
:1002C00004F050FE20600020BDE8F0870020206090
:1002D000401EF9E700B585B00020009001208DF8A0
:1002E00004008DF805004FF4602002900020039078
:1002F00002208DF810006946FE4802F026FB052317
:1003000001220021FB4802F0B8FB0523022208214C
:10031000F84802F0B2FB0121F64802F04DFB012142
:10032000F44802F03EFBF34802F05DFB00BFF148E9
:1003300002F05EFB0028FAD1EE4802F063FB00BF3A
:10034000EC4802F064FB0028FAD10121E94802F0F0
:1003500068FB05B000BD00B58BB0E74802F0A6F918
:10036000E4484C300090E5480190002002900220C3
:1003700003900020049080200590400006908000AB
:100380000790202008900002099000200A906946FA
:10039000D94802F02DFA0121D74802F054FA0BB0E7
:1003A00000BD70B505460C46284600F028FD012129
:1003B000062000F082FD1CB10221204600F00BFD5A
:1003C00070BDF0B503460C46154600262A460021AE
:1003D00023E0B01800EBD077C7F34F0129B933F809
:1003E0001100A04201DD0020F0BD33F81100A04251
:1003F00004DD481E33F81000A04203DB33F811007F
:10040000A04201D10846EFE733F81100A04202DD17
:10041000481E82B201E0481C86B29642D9D11046ED
:10042000E2E72DE9F04704460E4617463022214602
:10043000B348FFF7C6FF05B20C2095FBF0F000EBC8
:100440004000A5EB80000FFA80F9AD480088A0427B
:1004500032DCAB48B0F85E00A0422DDBA84830F893
:100460001500001B0FFA80FA002D05DCA448008857
:10047000201A0FFA80F806E0681EA14931F8100032
:10048000201A0FFA80F8D04503DD357087F8009008
:1004900020E0002D03DC0020307038701AE0B9F144
:1004A000010004D5681E30700020387012E0681E0C
:1004B0003070002038700DE09148B0F85E00A04226
:1004C00002DA0120BDE8F0878D480088A04201DDF6
:1004D0000220F7E70020F5E72DE9F74FD8B08B466B
:1004E000914600200D900C900B908246A9F10300DC
:1004F0000FFA80F8801D00B20F9029E0CDF8388007
:10050000DDF83880B8F1000F01DA00200E90ABF171
:1005100001000E99884201DA00B20E90404604F0C4
:1005200084F84AAA02EBCA0203C20E994A005899FB
:1005300031F9120004F079F83CAA02EBCA0203C2B6
:1005400008F101000FFA80F80AF101000FFA80FAB1
:100550000F988045D2DDBAF1070FCFDB4D994C984B
:10056000CDE906014B994A98CDE90401DDE906235E
:1005700004F002FA00221346CDE9080103F0EAFF75
:1005800022D04D994C98CDE904014B994A98CDE978
:100590000201DDE9042304F0EFF9CDE90801DDE90A
:1005A0003E01CDE90401DDE93C01CDE90201DDE9CF
:1005B000042304F0E1F9CDE90601DDE9082303F0A5
:1005C00071FE04460D4601E000244E4D53995298A9
:1005D000CDE9060151995098CDE90401DDE90623E2
:1005E00004F0CAF900221346CDE9080103F0B2FF76
:1005F00022D057995698CDE9040155995498CDE9E0
:100600000201DDE9042304F0B7F9CDE908014999B5
:100610004898CDE9040147994698CDE90201DDE902
:10062000042304F0A9F9CDE90601DDE9082303F06C
:1006300039FE06460F4601E00026334F0CA812A9EA
:1006400020AA2EABCDE90632CDE908103CA84AA974
:1006500001228DE8F000CDE904101146072000F0DA
:1006600083FC00200D900B90804655E0404603F03F
:10067000DCFF0022254BCDE9020103F013FECDE99A
:100680000601484603F0E8FF0022214BCDE90201B4
:1006900004F072F9CDE90401DDE9062303F046FD1B
:1006A000CDE908010CA812A920AA2EABCDE902328F
:1006B000CDE904103CA84AA9CDE900100720DDE9E6
:1006C000082301F0FDF8CDE910010D9804F03EFA81
:1006D000CDE90801DDE9102303F0D2FF07D2DDE9FF
:1006E000100103F0F1FC0D9008F101000B9008F1EE
:1006F00001000FE00024014008000240BC0000207F
:10070000000000200000F03F0000F0BF0000244087
:10071000000008400FFA80F8B8F1460FA6DB0B98EE
:1007200004F0C0FBFE49079004F0AAFA099048467D
:1007300004F0D0FBFB49079004F018FD08900999DC
:1007400004F030FA0A9004F001FA5BB0BDE8F08FD3
:100750002DE9F04F87B081468A464FF0010B00200B
:1007600002904FF0820840E039F91810481104F067
:1007700099FB059008F1010139F91110481104F0B5
:1007800091FB04900499084604F0ECFB054605999A
:10079000084604F0E7FB0646294604F003FA04463F
:1007A00003A9FFF7F3FC039804F0D0F9CDE90001A9
:1007B00003F00EFC06460022DB4B03F09DFF0446CF
:1007C00003F004FF00B2D94921F8180039F91800E4
:1007D000584506DD39F918B0404608EBD07149108C
:1007E000029108F102001FFA80F8D045BCDB0298A4
:1007F00007B0BDE8F08F2DE9F05F8246DFF830B337
:100800000021504604F0FEFA02D15846BDE8F09FA0
:100810000021504604F072FB04D2C649504604F051
:10082000A1FB8246504604F091F9804603F0D0FBCC
:1008300006460022C04B03F05FFF044603F044FC71
:1008400083465846E2E7BD49086000BFBB490968D6
:100850000029FBD170478CB00024B9480068009093
:10086000B8484FF4006201A9036805A802F090FFA0
:1008700004460CB100BFFEE74FF4804001F069FC74
:100880000121084601F0F1FC012140F20D2001F0A8
:10089000F9FC4FF4F850AC49088001208870102012
:1008A000C870AA4801F0B6FD48F20300A6490880C6
:1008B000012088701020C870A54801F0ABFD012010
:1008C000A1490880032088700020C8709F4801F06B
:1008D000A1FD01209C490880032088700020C87079
:1008E0009B4801F097FDFFF736FDFFF7F3FC9948B1
:1008F0000068C10AB1F1807F01D301201DE021F021
:100900007F40401E4FF0E022506150170F22002818
:1009100007DA13071E0E904B00F00F052D1F5E55D2
:1009200003E013071D0E8D4B1D5400BF00204FF038
:10093000E022906107201061002008B100BFFEE7AF
:100940006420FFF780FF00F000FAA8E08448006808
:100950000028FAD083490988A1F2FF7004F0A2FAB6
:100960008149086081498048006804F089F97E491E
:1009700008607F48007810B1012810D110E07A4853
:100980000068FFF738FF05467A4904F0BEFB06D23F
:1009900001207749087002216D4801F0E6FD7DE0F5
:1009A000754802680068401C734B1860734800EB80
:1009B000420101226C4803F063F86F480068B0F50B
:1009C000006F67D3594A6D4905A803F007F84FF443
:1009D00000615648FFF7BCFE694908800846028856
:1009E0004FF400615148FFF777FD664A03C20120CA
:1009F00000F083F9022000F080F9624903C903F096
:100A000063FB054600F005FA0021062000F055FAC8
:100A100002215DA000F0DFF95C4A5D49584800887A
:100A2000FFF7FFFC5B4908700846007820B10128F9
:100A300013D0022823D119E00121002000F03DFA53
:100A4000554A524B1B7852F82310544A504B1B788E
:100A500032F81300FFF7A5FC12E00121002000F09E
:100A60002CFA05214EA000F0B6F909E00121002082
:100A700000F023FA04214CA000F0ADF900E000BF23
:100A800000BF0221324801F072FD00203849087091
:100A90003949086000203249086000BF00BF55E7AF
:100AA00010B5012000F029F9072141A000F093F9C9
:100AB0000121002000F001FA07213FA000F08BF98E
:100AC00010BD10B5012000F018F9072138A000F082
:100AD00082F90121002000F0F0F9072138A000F090
:100AE0007AF910BD2DE9F0471E49488804F0F2F963
:100AF0008146354904F036FA80464FF08B4104F0C8
:100B0000BFF807464FF07F5104F030FB06462F49EF
:100B100004F0B6F805464FF0824104F023FA57E09E
:100B2000000020410000404000002440EC10002064
:100B30000000A0C2000080BF00003440B8000020C8
:100B40009400002090000020B20000200008014026
:100B5000000C0140C400002018ED00E000E400E0BB
:100B6000A0000020BC0000209C00002000E0FF440A
:100B7000B1000020000040C098000020EC000020E0
:100B8000A4000020A8000020487A0000C100002036
:100B9000C0000020B0000020600000200000002005
:100BA00068696768210000006C6F77210000000011
:100BB0004472756D326E6100486974210000000056
:100BC00057656C636F6D650033335340285CAF3FEE
:100BD00004462046BDE8F08770B50024012000F0EF
:100BE0008CF8072114A000F0F6F80121002000F095
:100BF00064F9FFF777FF054600BF03E0FF2000F030
:100C000093F8641C284604F031F9A042F6DC03E0B6
:100C10002D2000F089F8641C082CF9DB70BD084811
:100C2000006820B106480068401E054908600120A0
:100C3000044908607047000042617474657279006D
:100C4000B8000020A0000020704700BFFEE700BFF2
:100C5000FEE700BFFEE700BFFEE770477047704742
:100C600010B5FFF7DCFF10BD7047000010B504465B
:100C70004FF4E061A14801F07AFC4FF40041A04834
:100C800001F075FC04F00100012804D101224102A9
:100C90009A4801F06EFC04F00200022804D10122FF
:100CA0004102964801F065FC04F00400042804D1D8
:100CB00001224103924801F05CFC04F0080008287E
:100CC00004D1012241018D4801F053FC10BD10B543
:100CD00004462046FFF7CAFF4FF40061874801F041
:100CE00044FC0120FFF7AFFD4FF40061834801F0A1
:100CF0003EFC0120FFF7A7FD10BD70B5044625118D
:100D000004F00F064FF480517C4801F030FC284677
:100D1000FFF7DDFF0A20FFF796FD3046FFF7D7FF0C
:100D20000A20FFF790FD70BD70B50446251104F050
:100D30000F064FF48051714801F017FC2846FFF769
:100D4000C6FF3046FFF7C3FF70BD10B5C820FFF7E0
:100D50007AFD40F60171694801F009FC4FF4004149
:100D6000674801F004FC0121654801F000FC032004
:100D7000FFF7C3FF3220FFF766FD0320FFF7BDFF3B
:100D80000A20FFF760FD0320FFF7B7FF0A20FFF7F7
:100D90005AFD0220FFF7B1FF0A20FFF754FD28207B
:100DA000FFF7ABFF0820FFF7A8FF0F20FFF7A5FF15
:100DB0000620FFF7A2FF0120FFF79FFF6420FFF747
:100DC00042FD0220FFF799FF6420FFF73CFD0C2055
:100DD000FFF793FF10BD70B505460E4605B970BD0F
:100DE000002407E0285D00B906E0285DFFF79CFFBE
:100DF000601CC4B2B442F5DB00BF00BFEFE770B5C2
:100E00000446204600F082F805460321FFF7E3FF81
:100E100070BD2DE9F04106463A49304604F0A2F88B
:100E2000074604F023F804460A2094FBF0F100FB87
:100E30001145641B94FBF0F40A2C07DA204600F0FD
:100E400065F807460121FFF7C6FF2AE0642C07DAA0
:100E5000204600F05BF807460221FFF7BCFF20E0C8
:100E6000B4F57A7F07DA204600F050F807460321F0
:100E7000FFF7B1FF15E042F21070844207DA204616
:100E800000F044F807460421FFF7A5FF09E01E48DB
:100E9000844206DA204600F039F807460521FFF7BC
:100EA0009AFF2E20FFF740FF284600F02FF8074654
:100EB0000121FFF790FFBDE8F08170B504460E46B2
:100EC00036B1012E06D0022E08D0032E0ED109E035
:100ED00025460DE004F14000C5B209E004F114001C
:100EE000C5B205E004F15400C5B201E0254600BFDB
:100EF00000BF45F08000FFF700FF70BD0008014013
:100F0000000C014000002041A086010030B50246DF
:100F100014490024002300BF04E00020114D133DBC
:100F2000E8545B1C132BF8DB002001F80109002AB0
:100F300001DA0124524200BF0A2092FBF0F500FBC7
:100F40001520303001F801090A2092FBF0F2002A46
:100F5000F2DC012C02D12D2001F80109481C0146C8
:100F600030BD00003F3100200FB591B01198401EF8
:100F7000109000211F9801601198022803DA0121C6
:100F80001F980160FDE301200B900E9018E00E9871
:100F9000401E1A9901EBC00103C9CDE908010E9961
:100FA0001A9800EBC10103C9CDE90601DDE9082368
:100FB00003F066FB01D800200B900E98401C0E90A9
:100FC00011990E988842E2DB0B9818B902211F98FC
:100FD0000160D7E7119803287EDB1A9903C9CDE990
:100FE00008011A99D1E90201CDE90601DDE90823DA
:100FF00003F0C2FC1E9A03C21B9903C9CDE9060186
:101000001B99D1E90201CDE90401DDE9062303F0D2
:10101000B3FCCDE908011E9903C902460B46CDE990
:101020000601DDE9080103F03DF91D9AC2E902015C
:1010300001200E907BE00E991A9800EBC10103C9C4
:10104000CDE908010E98401C1A9901EBC00103C9B3
:10105000CDE90601DDE9082303F08EFC0E9B1E9A04
:1010600002EBC30203C20E991E9800EBC10103C933
:10107000CDE906010E98401E1E9901EBC00103C97F
:10108000CDE90401DDE9062303F050F800224FF01A
:101090008043CDE9080103F02FFB0E9B1C9A02EB65
:1010A000C30203C20E991B9800EBC10103C9CDE92D
:1010B00006010E98401C1B9901EBC00103C9CDE944
:1010C0000401DDE9062303F057FCCDE908010E9980
:1010D0001E9800EBC10100E0B6E303C902460B46CF
:1010E000CDE90601DDE9080103F0DCF80E9A521C97
:1010F0001D9B03EBC20203C21D990E9801EBC001B8
:1011000003C9CDE908010E98401C1D9901EBC001EF
:1011100003C9CDE90601DDE9082303F02DFC0E9B90
:101120001D9A02EBC30203C20E98401C0E90109948
:101130000E988842FFF67FAF1E9903C981F00042E6
:101140001C9905C11198801E1E9901EBC00103C9AD
:1011500081F00041109B1C9A02EBC30203C20022E3
:101160001D9802604260002310991D9800EBC10099
:1011700003604360119803287ED01A9903C9CDE912
:1011800002011A99D1E90401CDE90001DDE9022348
:1011900003F0F2FBCDE904011D99D1E90201CDE98B
:1011A0000201DDE9042303F07DF8CDE908011A9975
:1011B000D1E90201CDE902011A99D1E90601CDE98F
:1011C0000001DDE9022303F0D7FBCDE904011D99FD
:1011D000D1E90401CDE90201DDE9042303F062F85D
:1011E000CDE90601DDE9082303F0C6FB1D9A03C221
:1011F0001198001F1A9901EBC00103C9CDE9020142
:101200001198801E1A9901EBC00103C9CDE90001B4
:10121000DDE9022303F0B0FBCDE904011198C01E03
:101220001D9901EBC00103C9CDE90201DDE90423E9
:1012300003F038F8CDE908011198C01E1A9901EBA6
:10124000C00103C9CDE9020110991A9800EBC10150
:1012500003C9CDE90001DDE9022303F08DFBCDE9EF
:1012600004011198801E1D9901EBC00103C9CDE94D
:101270000201DDE9042300E07CE003F013F8CDE98E
:101280000601DDE9082303F077FB109B1D9A02EBB2
:10129000C30203C21A9903C9CDE904011A99D1E91D
:1012A0000601CDE90201DDE9042303F065FBCDE988
:1012B00008011E9903C9CDE902011D9903C9CDE9B1
:1012C0000001DDE9022303F017FACDE904011E99BC
:1012D00003C9CDE90201DDE9042303F00DFACDE9EC
:1012E0000601DDE9082302F0DDFF1D9A03C2119813
:1012F000001F1A9901EBC00103C9CDE904011A9935
:10130000109801EBC00103C9CDE90201DDE9042316
:1013100003F032FBCDE9080110991D9800EBC101E3
:1013200003C981F00041CDE902011198801E1E9988
:1013300001EBC00103C9CDE90001DDE9022303F09F
:10134000DBF9CDE904011198801E1E9901EBC00163
:1013500003C9CDE90201DDE9042303F0CDF9CDE9AC
:101360000601DDE9082302F09DFF109B1D9A02EBA8
:10137000C30203C2129801283FD11A9903C9CDE9CB
:1013800006011A99D1E90201CDE90401DDE906233C
:1013900003F0F2FA00224FF08043CDE9080103F098
:1013A000ABF91C9A03C21A9903C9CDE902011A9933
:1013B000D1E90201CDE90001DDE9022303F0DCFA05
:1013C000CDE906011B9903C9CDE902011B99D1E9B9
:1013D0000201CDE90001DDE9022303F0CDFACDE9F8
:1013E0000401DDE9062302F05DFFCDE90801DDE936
:1013F000162303F0C1FA1D9A03C21398012857D18E
:101400001198801E1A9901EBC00103C9CDE90601AC
:1014100010991A9800EBC10103C9CDE90401DDE977
:10142000062303F0A9FA00224FF08043CDE908011A
:1014300003F062F9109B1C9A02EBC30203C21198DD
:10144000801E1A9901EBC00103C9CDE902011A9966
:10145000109801EBC00103C9CDE90001DDE90223C9
:1014600003F08AFACDE906011198801E1B9901EB61
:10147000C00103C9CDE9020110991B9800EBC1011D
:1014800003C9CDE90001DDE9022303F075FACDE9D6
:101490000401DDE9062302F005FFCDE90801DDE9DD
:1014A000182303F05DFA109B1D9A02EBC30203C2DE
:1014B00001200E9054E00E98401E1C9901EBC001D3
:1014C00003C9CDE908010E98401E1E9901EBC00129
:1014D00003C9CDE90601DDE9082302F0E3FECDE909
:1014E0000C010E98401E1E9901EBC00103C9CDE905
:1014F0000601DDE90C2303F0FFF8CDE908010E99A0
:101500001C9800EBC10103C9CDE90601DDE9082300
:1015100003F032FA0E9B1C9A02EBC30203C20E9830
:10152000401E1D9901EBC00103C9CDE90601DDE9AB
:101530000C2303F0E1F8CDE908011D990E9801EBA9
:10154000C00103C9CDE90601DDE9082303F014FA5F
:101550000E9B1D9A02EBC30203C20E98401C0E9014
:1015600011990E988842A6DB10991C9800EBC101D6
:1015700003C9CDE908011D99109801EBC00103C909
:10158000CDE90601DDE9082302F08CFE109B1D9ACF
:1015900002EBC30203C200200F903BE011990F98A9
:1015A000081A801E0E900E98401C1D9901EBC00178
:1015B00003C9CDE904011E990E9801EBC00103C9CE
:1015C000CDE90201DDE9042303F096F8CDE9060137
:1015D0000E991D9800EBC10103C9CDE90401DDE9B5
:1015E000062303F0C9F9CDE908011C990E9801EB17
:1015F000C00103C902460B46CDE90601DDE9080139
:1016000002F050FE0E9B1D9A02EBC30203C20F981C
:10161000401C0F90DDE90F018842BFDB10991D9837
:1016200000EBC10103C902460B46CDE900010020D1
:101630004FF0804103F060F8CDE902011198801E5F
:101640001D9901EBC00103C9CDE90001DDE90223C9
:1016500002F06CFDCDE904011198801E1E9901EB8A
:10166000C00103C9CDE90201DDE9042303F044F818
:10167000CDE908011198801E1B9901EBC00103C937
:10168000CDE902011B99109801EBC00103C9CDE916
:101690000001DDE9022303F06FF9CDE9040111989F
:1016A000801E1E9901EBC00103C902460B46CDE91D
:1016B0000201DDE9040102F0F5FDCDE90601DDE9F5
:1016C000082302F033FD109B1C9A02EBC30203C2F5
:1016D00000200E9095E01D990E9801EBC00103C902
:1016E00002460B46CDE9000100204FF0804103F097
:1016F00003F8CDE902010E98401C1D9901EBC001D1
:1017000003C9CDE90001DDE9022302F00FFDCDE9B7
:1017100004011E990E9801EBC00103C9CDE9020135
:10172000DDE9042302F0E8FFCDE908011B990E98DA
:1017300001EBC00103C9CDE902010E98401C1B99C1
:1017400001EBC00103C9CDE90001DDE9022303F08B
:1017500013F9CDE904010E991E9800EBC10103C9EC
:1017600002460B46CDE90201DDE9040102F09AFDD3
:10177000CDE90601DDE9082303F0FEF80E9B1C9A73
:1017800000E09AE002EBC30203C21D990E9801EB40
:10179000C00103C9CDE906010E98401C1D9901EB5B
:1017A000C00103C9CDE90401DDE9062303F0E4F833
:1017B000CDE908011E990E9801EBC00103C902464C
:1017C0000B46CDE90601DDE9080102F06BFD0E9B39
:1017D0001E9A02EBC30203C21D990E9801EBC001D1
:1017E00003C902460B46CDE908010020FE4902F07C
:1017F00083FF0E9B1D9A02EBC30203C20E98401C8E
:101800000E9010990E988842FFF665AF1D991098BA
:1018100001EBC00103C902460B46CDE908010020D7
:10182000F14902F069FF109B1D9A02EBC30203C24B
:101830001198801E1E9901EBC0000CC80846109933
:1018400000EBC1000CC037E01A9903C9CDE90401CF
:101850001A99D1E90201CDE90201DDE9042303F07F
:101860008BF8CDE908011B9903C9CDE904011B9947
:10187000D1E90201CDE90201DDE9042303F07CF89E
:10188000CDE90601DDE9082302F00CFD1C9A03C234
:1018900000211D980160416000221E980260426094
:1018A0001C98D0E90012C0E9021200221D98826043
:1018B000C2601E988260C26000BF002015B000BDEB
:1018C0002DE9F04F8DB0834614461D46DDF8589043
:1018D0001B98D0F80080ABF10100404501DC4FF0CF
:1018E0000008B8F1000F01DA4FF0000809EBC80159
:1018F00003C922462B46CDE90A0102F0FBFF0BD3B8
:1019000008F1010009EBC00103C922462B46CDE9CD
:101910000A0102F0B5FE2BD24FF00008CDF830B02E
:1019200000BF0C9908EB010000EBD0714FEA610A8F
:1019300009EBCA0003C802460B46CDE90A0120465E
:10194000294602F09DFE01D2CDF830A009EBCA0075
:1019500003C802460B46CDE90A012046294602F09B
:10196000C9FF00D8D04608F101010C988842D8DCA4
:101970001B98C0F8008009EBC80003C822462B461C
:10198000CDE90A0102F0ECFF06460F461A9800EB7B
:10199000C80103C932463B46CDE9000102F0ACFE66
:1019A000CDE90201199800EBC80103C9CDE9000196
:1019B000DDE9022302F0BAFB32463B46CDE90401E1
:1019C00002F09AFECDE90601189800EBC80103C9A0
:1019D000CDE90401DDE9062302F0A8FB32463B46CF
:1019E000CDE9080102F088FECDE90A01179800EB65
:1019F000C80103C9CDE90801DDE90A2302F096FB1D
:101A000006460F46304639460DB0BDE8F08F2DE949
:101A1000F04F8DB0834614461D46DDF858901A9855
:101A2000D0F80080ABF10100404501DC4FF0000828
:101A3000B8F1000F01DA4FF0000809EBC80003C845
:101A400022462B46CDE90A0102F054FF0BD308F1E0
:101A5000010009EBC00103C922462B46CDE90A016A
:101A600002F00EFE2BD24FF00008CDF830B000BFD0
:101A70000C9908EB010000EBD0714FEA610A09EB09
:101A8000CA0103C902460B46CDE90A012046294690
:101A900002F0F6FD01D2CDF830A009EBCA0003C870
:101AA00002460B46CDE90A012046294602F022FFF4
:101AB00000D8D04608F101010C988842D8DC1A9869
:101AC000C0F8008009EBC80003C822462B46CDE9C8
:101AD0000A0102F045FF06460F460022424B3046FF
:101AE000394602F009FECDE90201199800EBC80061
:101AF00003C8CDE90001DDE9022302F0FDFDCDE9D7
:101B00000601189800EBC80003C802460B46CDE951
:101B1000020100204FF0804102F0EEFDCDE904010A
:101B2000DDE9062302F002FB32463B46CDE908011F
:101B300002F0E2FDCDE90A01179800EBC80003C8E6
:101B4000CDE90801DDE90A2302F0F0FA06460F4666
:101B5000304639460DB0BDE8F08F2DE9FF5F98B0F3
:101B600016461F46DDF898A02B98D0F800801898EC
:101B7000A0F10100404501DC4FF00008B8F1000F72
:101B800001DA4FF000080AEBC80003C832463B46B2
:101B9000CDE9140102F0AEFE0BD308F101000AEB0F
:101BA000C00003C832463B46CDE9140102F068FD8F
:101BB0002BD24FF00008DDF8609000BF08EB090061
:101BC00000EBD0714FEA610B0AEBCB0003C8024671
:101BD0000B46CDE914013046394602F051FD00D2E2
:101BE000D9460AEBCB0001E00000084003C80246DA
:101BF0000B46CDE914013046394602F07BFE00D891
:101C0000D84608F101008145D8DC2B98C0F8008047
:101C1000002116911791894671E00AEBC90003C8AB
:101C2000CDE9140109F101000AEBC00003C8CDE9B8
:101C30001201DDE9142302F09FFE04460D46002246
:101C4000674B2046294602F057FDCDE902012A984C
:101C500000EBC90003C8CDE90001DDE9022302F071
:101C60004BFDCDE90601299800EBC90003C800220D
:101C70005C4BCDE9020102F015FBCDE90401DDE981
:101C8000062302F053FA22462B46CDE9080102F062
:101C900033FDCDE90C01289800EBC90003C80246CA
:101CA0000B46CDE9080100204F4902F025FDCDE9A2
:101CB0000A01DDE90C2302F039FA22462B46CDE970
:101CC0000E0102F019FDCDE91001279800EBC900C3
:101CD00003C8CDE90E01DDE9102302F027FA224600
:101CE0002B46CDE9120102F007FDCDE91401DDE933
:101CF000162302F01BFACDE9160109F10109C145CD
:101D00008BDB0AEBC80003C832463B46CDE9140121
:101D100002F026FE04460D460022314B204629469D
:101D200002F0EAFCCDE902012A9800EBC80003C8E2
:101D3000CDE90001DDE9022302F0DEFCCDE9060178
:101D4000299800EBC80103C90022264BCDE9020106
:101D500002F0A8FACDE90401DDE9062302F0E6F974
:101D600022462B46CDE9080102F0C6FCCDE90C0164
:101D7000289800EBC80003C802460B46CDE90801CD
:101D80000020194902F0B8FCCDE90A01DDE90C2375
:101D900002F0CCF922462B46CDE90E0102F0ACFC54
:101DA000CDE91001279800EBC80003C8CDE90E016A
:101DB000DDE9102302F0BAF922462B46CDE91201E3
:101DC00002F09AFCCDE91401DDE9162302F0AEF928
:101DD000CDE91601DDE916011CB0BDE8F09F000059
:101DE0000000D03F000008400000E03F002100203C
:101DF000674A126842F48032654B1A6000BF644A39
:101E0000126802F40030491C10B9B1F5A06FF6D188
:101E10005F4A126812F4003F01D0012000E0002068
:101E2000012842D15B4A126842F01002594B1A60F5
:101E30001A46126822F003021A601A46126842F02B
:101E400002021A60524A5268514B5A601A4652684E
:101E50005A601A46526842F480625A601A465268C2
:101E600022F47C125A601A46526842F4E8125A6010
:101E70001A46126842F080721A6000BF444A126823
:101E800012F0007FFAD0424A526822F00302404B1F
:101E90005A601A46526842F002025A6000BF3C4A39
:101EA000526802F00C02082AF9D1704710B5FFF70A
:101EB0009DFF10BD10B53648006840F00100344960
:101EC000086008464068344908403149486008467F
:101ED0000068324908402E4908600846006820F42E
:101EE000802008600846406820F4FE0048604FF4F7
:101EF0001F008860FFF7DAFF4FF000602849086094
:101F000010BD10B5002100200022214B5B6803F0BA
:101F10000C0121B1042906D0082928D107E0214B62
:101F2000214C236027E01F4B1F4C236023E0184BFC
:101F30005B6803F47010164B5B6803F48032022375
:101F400003EB904022B9194B4343174C23600DE03B
:101F50000F4B5B6813F4003F04D0144B4343124C07
:101F6000236003E00F4B43430F4C236003E00D4B12
:101F70000D4C236000BF00BF054B5B68C3F3031328
:101F80000B4CE15C084B1B68CB40074C236010BD39
:101F900000100240002002400000FFF8FFFFF6FEA4
:101FA00008ED00E000127A00C400002000093D00A6
:101FB000C8000020DC48006840F00100DA490860F1
:101FC00008464068D9490840D74948600846006833
:101FD000D7490840D44908600846006820F48020AA
:101FE00008600846406820F4FE0048604FF41F0077
:101FF00088607047CC49096821F48031CA4A116071
:102000001146096821F480211160B0F5803F03D0AA
:10201000B0F5802F0ED106E0C349096841F4803144
:10202000C14A116007E0C049096841F4A021BE4AD5
:10203000116000E000BF00BF704710B501460022EC
:10204000002300204A11012A02D1B74C236806E080
:10205000022A02D1B44C236A01E0B34C636A01F056
:102060001F02012494401C4201D0012000E0002006
:1020700010BD70B500240025002600BF3120FFF7F9
:10208000DCFF0646641CB4F5A06F01D0002EF5D02D
:102090003120FFF7D2FF08B1012500E000252846D6
:1020A00070BD01460020A04A106820F0F80040EA08
:1020B000C100106070479F490860704702460020C9
:1020C000994B586820F47C1042EA01031843964B60
:1020D0005860704797490866704701460020924A49
:1020E000506820F003000843506070478E484068F5
:1020F00000F00C007047014600208B4A506820F029
:10210000F00008435060704701460020864A50683E
:1021100020F4E06008435060704701460020824A86
:10212000506820F4605040EAC1005060704729B107
:102130007D4A527A02437C4B5A7206E07A4A527ABE
:10214000C343DBB21A40784B5A7270477A49086031
:10215000704701460020744A506820F4404008430C
:10216000506070470021754A11706F4A82F8201044
:10217000012802D0042808D103E001216F4A117020
:1021800004E005216D4A117000E000BF00BF7047F8
:102190006B49086070476449096A0143624A1162E9
:1021A0007047674944390860704730B50021002204
:1021B000002400235C4D6D6805F00C0121B1042959
:1021C00005D0082923D105E05E4D056022E05D4D74
:1021D00005601FE0544D6D6805F47012524D6D6836
:1021E00005F48034022505EB92421CB9564D554347
:1021F00005600BE04C4D6D6815F4003F03D0524D67
:102200005543056002E04F4D5543056002E04D4DDA
:10221000056000BF00BF444D6D6805F0F00109097D
:102220004A4D6B5C0568DD4045603F4D6D6805F4C7
:10223000E061090A454D6B5C4568DD4085603A4DBB
:102240006D6805F46051C90A404D6B5C4568DD401E
:10225000C560354D6D6805F44041890B3C4D6B5CA4
:10226000C568B5FBF3F5056130BD29B12E4A526949
:1022700002432D4B5A6104E02B4A526982432A4B98
:102280005A61704729B1284A92690243264B9A61E4
:1022900004E0254A92698243234B9A61704729B131
:1022A000214AD2690243204BDA6104E01E4AD26916
:1022B00082431D4BDA61704729B11B4AD268024341
:1022C000194BDA6004E0184AD2688243164BDA6090
:1022D000704729B1144A12690243134B1A6104E092
:1022E000114A12698243104B1A61704714494039F0
:1022F000086070470F49C86470470B49C871704740
:102300000948406A40F080700749486270470146BA
:102310000020054A92680A4201D0012000E0002016
:102320007047014988727047001002400000FFF8B2
:10233000FFFFF6FE00004242D80042422010024059
:102340008004424200127A0000093D00D8000020BB
:10235000E800002010B50446CA48844208D1012193
:102360000420FFF7A9FF00210420FFF7A5FF46E0A6
:10237000C548844208D101210820FFF79DFF0021B4
:102380000820FFF799FF3AE0C048844208D10121B4
:102390001020FFF791FF00211020FFF78DFF2EE0A6
:1023A000BB48844208D101212020FFF785FF00218E
:1023B0002020FFF781FF22E0B648844208D10121A6
:1023C0004020FFF779FF00214020FFF775FF16E05E
:1023D000B148844208D101218020FFF76DFF002120
:1023E0008020FFF769FF0AE0AC48844207D1012151
:1023F0008015FFF761FF0021A015FFF75DFF10BDFD
:1024000010B501210846FFF757FF00210120FFF713
:1024100053FF10BD2DE9F0410246002500260020A3
:1024200000230024002791F803C00CF00F0591F859
:1024300003C01CF0100F03D091F802C04CEA050550
:10244000B1F800C01CF0FF0F31D0146800202BE061
:102450004FF0010C0CFA00F3B1F800C00CEA0306CF
:102460009E4220D183004FF00F0C0CFA03F7BC43BF
:1024700005FA03FC4CEA040491F803C0BCF1280FF0
:1024800006D14FF0010C0CFA00FCC2F814C00AE0AF
:1024900091F803C0BCF1480F05D14FF0010C0CFAC4
:1024A00000FCC2F810C0401C0828D1D31460B1F859
:1024B00000C0BCF1FF0F34DD546800202EE000F1B5
:1024C000080C4FF0010808FA0CF3B1F800C00CEA50
:1024D00003069E4221D183004FF00F0C0CFA03F744
:1024E000BC4305FA03FC4CEA040491F803C0BCF1B8
:1024F000280F05D100F1080C08FA0CF8C2F8148076
:1025000091F803C0BCF1480F07D100F1080C4FF05F
:10251000010808FA0CF8C2F81080401C0828CED335
:102520005460BDE8F0814FF6FF7101800221817097
:102530000421C17070470246002093680B4201D00D
:10254000012000E0002070470146886880B2704793
:1025500002460020D3680B4201D0012000E0002099
:1025600070470146C86880B2704701617047416199
:1025700070470AB1016100E041617047C160704776
:102580004FF480320A43826181618261826982698B
:10259000704702460020424B18684FF6807318407F
:1025A00040EA021008433E4B186070473D49C8613D
:1025B0007047F0B50A46002300240021002500F0F2
:1025C0000046B6F1004F02D1354EF16901E0344EBC
:1025D0007168C0F3034583B200F44016B6F5401F9E
:1025E00008D121F070612E4E766826F070662C4F6F
:1025F0007E6012E000F48016B6F5801F06D1032637
:1026000006FA05F4A14341F0706106E0460D36017B
:1026100003FA06F6B14341F0706122B1460D36016E
:1026200003FA06F6314300F00046B6F1004F02D13E
:102630001B4EF16101E01A4E7160F0BD30B5002211
:102640008B071C0F0F2303FA04F2154B08338C1071
:1026500053F824309343124C08348D1044F825303D
:1026600023468C1053F824308C07240F00FA04F40E
:1026700023430B4C08348D1044F8253030BD0A49F3
:102680000860704700080140000C01400010014044
:102690000014014000180140001C014000200140CE
:1026A0000000014000002042DC00204201684FF69B
:1026B000FE72114001600021016041608160C160D3
:1026C0008C49884208D18B490839496841F00F018B
:1026D000884A083A51608AE086491431884208D114
:1026E00084490839496841F0F001824A083A51604A
:1026F0007DE080492831884208D17E4908394968FF
:1027000041F470617B4A083A516070E079493C318C
:10271000884208D177490839496841F47041754ABF
:10272000083A516063E073495031884208D17149D9
:102730000839496841F470216E4A083A516056E000
:102740006C496431884208D16A490839496841F4C2
:102750007001684A083A516049E066497831884218
:1027600008D164490839496841F07061614A083A02
:1027700051603CE06049884206D1011F096841F080
:102780000F01021F116032E05B491431884208D109
:102790005949091F096841F0F001574A121F116099
:1027A00025E055492831884208D15349091F096855
:1027B00041F47061504A121F116018E04E493C31DB
:1027C000884208D14C49091F096841F470414A4ABE
:1027D000121F11600BE048495031884207D1464929
:1027E000091F096841F47021434A121F11607047A4
:1027F00010B50022026847F6F0739A430C6A8B68A2
:1028000023430C6923434C6923438C692343CC69DC
:1028100023434C6A23438C6A23431A430260CB68E8
:1028200043600B6883604B68C36010BD002101608A
:1028300041608160C160016141618161C16101628A
:1028400041628162704721B1026842F00102026078
:1028500004E002684FF6FE731A40026070471AB136
:1028600003680B43036002E003688B430360704717
:10287000416070470146486880B2704701460020B9
:10288000002211F0805F03D01B4B083B1A6802E066
:10289000184B083B1A680A4201D0012000E00020D2
:1028A000704710F0805F03D01349091F086002E0F1
:1028B000104908394860704701460020002211F095
:1028C000805F03D00C4B083B1A6802E0094B083BC1
:1028D0001A680A4201D0012000E00020704710F081
:1028E000805F03D00449091F086002E001490839EC
:1028F00048607047080002400804024010B50446D2
:10290000F948844208D101214015FFF7D5FC002188
:102910006015FFF7D1FC17E0F448844208D101218B
:102920000015FFF7C9FC00212015FFF7C5FC0BE0DF
:10293000EF48844208D10121C803FFF7BDFC002104
:102940004FF40040FFF7B8FC10BD30B50246002040
:1029500000235068E74C20400D790C6844EA0524B8
:10296000204350609068E44C2040D1E902542C434D
:102970004D7944EA450420439060D06A20F4700009
:102980000C7C641EE4B2234340EA0350D06230BDA5
:1029900000210160017141718160C16001210174F8
:1029A000704721B1826842F00102826003E08268D0
:1029B00022F001028260704721B1826842F4807285
:1029C000826003E0826822F480728260704710B5F2
:1029D0000023CBB21AB144681C43446002E044684F
:1029E0009C43446010BD816841F0080181607047DC
:1029F000014600208A6812F0080F01D0012000E093
:102A000000207047816841F00401816070470146F1
:102A100000208A6812F0040F01D0012000E000209D
:102A2000704721B1826842F4A002826003E08268AC
:102A300022F4A00282607047014600208A6812F4E6
:102A4000800F01D0012000E00020704710B50A4639
:102A500000210023416821F46041531E41EA4331C3
:102A6000416010BD21B1426842F40062426003E05F
:102A7000426822F4006242607047F0B504460D4699
:102A800000200021092D11DDE068A5F10A0606EB02
:102A90004607072606FA07F18843A5F10A0606EB62
:102AA000460603FA06F10843E0600CE0206905EBF6
:102AB0004507072606FA07F1884305EB450603FAA2
:102AC00006F108432061072A0FDA606B561E06EBF9
:102AD00086071F2606FA07F18843561E06EB860670
:102AE00005FA06F10843606322E00D2A0FDA206B35
:102AF000D61F06EB86071F2606FA07F18843D61F66
:102B000006EB860605FA06F10843206310E0E06A4A
:102B1000A2F10D0606EB86071F2606FA07F1884389
:102B2000A2F10D0606EB860605FA06F10843E062FF
:102B3000F0BD21B1826842F48012826003E08268B5
:102B400022F48012826070470146C86C80B27047E0
:102B500065484C300068704721B1426842F4806299
:102B6000426003E0426822F480624260704721B113
:102B7000426842F48052426003E0426822F480528C
:102B8000426070470A460021816821F4E041114308
:102B90008160704721B1826842F40042826003E0A4
:102BA000826822F400428260704721B1826842F458
:102BB0000212826003E0826822F40212826070478F
:102BC000014600208A6812F4001F01D0012000E0B5
:102BD00000207047F0B5044615460020002200266C
:102BE000092911DDE068A1F10A0707EB470C072767
:102BF00007FA0CF29043A1F10A0707EB470703FA23
:102C000007F21043E0600CE0206901EB410C07275C
:102C100007FA0CF2904301EB410703FA07F2104365
:102C20002061A06BC0F30156EF1C06F1010CA7EB6D
:102C30000C0707EB870C1F2707FA0CF29043EF1CD9
:102C400006F1010CA7EB0C0707EB870701FA07F267
:102C50001043A063F0BD10B50A4600210023816B2C
:102C600021F44011531E41EA0351816310BD10B598
:102C7000002303460B441A6010BD0246002313468E
:102C800001F128000344186880B270470A46002109
:102C900041681A4B1940114341607047416282629A
:102CA00070470A460021416821F01F01114341602D
:102CB000704740B10C490831096841F400010A4AE3
:102CC0000832116007E008490831096821F4000161
:102CD000054A0832116070470246002013680B4213
:102CE0000ED001200DE0000000240140002801402A
:102CF000003C0140FFFEF0FFFDF7F1FFFFFD3FFF4D
:102D000000207047CA430260704770B50246002039
:102D1000002300240B125568CEB205EA060415689C
:102D20001D4202D00CB1012000E0002070BD002245
:102D30000A12D34303607047094880470948004797
:102D4000FEE7FEE7FEE7FEE7FEE7FEE7FEE7FEE75B
:102D5000FEE7FEE704480549054A064B70470000B8
:102D6000B51E0008ED000008A0310020A0370020AB
:102D7000A0330020A033002030B50446002021807D
:102D8000174D6560A270E3702588102D1BD0402D73
:102D900012D0B5F5807F08D0B5F5806F1AD1012526
:102DA000A581E5810F4DA56017E00425A581E5818A
:102DB0000C4DAD1DA56010E01025A581E581094DE4
:102DC0001E35A56009E04025A581E581054D7E35CC
:102DD000A56002E04FF0FF3000BF00BF30BD000033
:102DE000465300084883000830B5024613B20CB2BF
:102DF0001D1905F30F03151405EB214505F30F0508
:102E00002C04254663F30F05284630BD30B5024635
:102E100013B20CB25D1005EB6403551405EB61456C
:102E20002C04254663F30F05284630BD30B5024615
:102E300013B20CB21D1B05F30F031514A5EB2145AE
:102E400005F30F052C04254663F30F05284630BD16
:102E500030B5024613B20CB25D10A5EB64035514F5
:102E6000A5EB61452C04254663F30F05284630BDCC
:102E70002DE9F04104460D46002621B2A1EB254084
:102E800000F050FC074629B201EB244000F04AFC58
:102E9000304407EB00463046BDE8F08130B50246CD
:102EA00013B20CB25D10A5EB6143551405EB64053C
:102EB0002C04254663F30F05284630BD2DE9F0416B
:102EC00004460D46002621B201EB254000F02AFC05
:102ED000074629B2C1EB244000F024FC304407EB44
:102EE00000463046BDE8F08130B5024613B20CB260
:102EF0005D1005EB61435514A5EB64052C042546D4
:102F000063F30F05284630BD2DE9F04784460C4693
:102F100090461D466046002267084FF0010909EB04
:102F2000540300212DE0914217D250F8216050F84F
:102F3000229040F8219040F8226001EB030950F8FC
:102F4000296002EB030950F8299001EB030A40F8CD
:102F50002A9002EB030940F8296001F1010950F8B9
:102F6000296002EB070950F829A001F1010940F896
:102F700029A002EB070940F829602A8805EB4805DB
:102F8000891CA7F102098945CDD2BDE8F0872DE95A
:102F9000FF4F8DB00D9C0F9805900E9D0495AD08C8
:102FA000002003900026029500BF771907EB050A61
:102FB0000AEB050B54F826800FFA88F08010009079
:102FC0004FEAA801009860F30F01884654F82A00E0
:102FD0000B900B9800B2801000900B99891000980C
:102FE00060F30F010B9140460B99FFF7FDFE0C902B
:102FF00040460B99FFF71AFF0B9054F827800FFA01
:1030000088F0801000904FEAA801009860F30F014B
:10301000884654F82B000A900A9800B2801000905D
:103020000A998910009860F30F010A9140460A99A5
:10303000FFF7DAFE804641460C98FFF7E7FE44F8BA
:10304000260041460C98FFF7F1FE0C9003984100D2
:10305000059850F8210008900C99089800F082FB20
:103060004FEA20490C99089800F068FB069054F844
:1030700027800FFA88F0801000904FEAA80100988E
:1030800060F30F018846069869F30F0044F82700A3
:1030900054F82B000A900A9800B2801000900A9908
:1030A0008910009860F30F010A9140460A99FFF7D2
:1030B000BDFE804641460B98FFF7DAFE0C90414674
:1030C0000B98FFF7FBFE0B900399059850F8210031
:1030D00009900B99099800F045FB4FEA20490B999C
:1030E000099800F02BFB0690069869F30F0044F84E
:1030F0002A00039800EB4001059850F82100079042
:103100000C99079800F02EFB4FEA20490C9907987C
:1031100000F014FB0690069869F30F0044F82B00AA
:103120001099039808440390761C0298401E029060
:103130007FF43BAF1098800010900E9880080190AB
:10314000A8E00495AD0800200390029097E0039951
:10315000059850F82100099003984100059850F80F
:1031600021000890039800EB4001059850F82100D9
:1031700007901099039808440390029E79E077190C
:1031800007EB050A0AEB050B54F8268054F82A00D1
:103190000B9040460B99FFF727FE0C9040460B9989
:1031A000FFF744FE0B9054F8278054F82B000A9048
:1031B00040460A99FFF718FE804641460C98FFF7F3
:1031C00025FE81460FFA89F0401000904FEA690110
:1031D000009860F30F01894644F8269041460C9808
:1031E000FFF736FE0C900C99089800F0BBFA4FEAF6
:1031F00020490C99089800F0A1FA069054F827800D
:10320000069869F30F0044F8270054F82B000A9041
:1032100040460A99FFF70AFE804641460B98FFF7A1
:103220003DFE0C9041460B98FFF75EFE0B900B990C
:10323000099800F097FA4FEA20490B99099800F095
:103240007DFA0690069869F30F0044F82A000C995D
:10325000079800F087FA4FEA20490C99079800F088
:103260006DFA0690069869F30F0044F82B00049855
:1032700006440E98864282D30298401C0290681E33
:1032800002998842BFF463AF1098800010900198B3
:1032900080080190019804283FF653AF0495AD08CB
:1032A000002643E0771907EB050A0AEB050B54F8F3
:1032B000268054F82A000B9040460B99FFF794FDA6
:1032C0000C9040460B99FFF7B1FD0B9054F8278006
:1032D00054F82B000A9040460A99FFF785FD804676
:1032E00041460C98FFF792FD44F8260041460C98A1
:1032F000FFF7AEFD0C9054F827800C9844F8270097
:1033000054F82B000A9040460A99FFF78FFD80463B
:1033100041460B98FFF7E8FD44F82A0041460B9818
:10332000FFF7BCFD44F82B000498064404990E985E
:10333000401AB042B6D211B0BDE8F08F2DE9FF4F70
:103340008DB00D9C0F9805900E9D0495AD08002042
:1033500003900026029500BF771907EB050A0AEBD8
:10336000050B54F826800FFA88F0801000904FEA81
:10337000A801009860F30F01884654F82A000B90CA
:103380000B9800B2801000900B998910009860F3A0
:103390000F010B9140460B99FFF726FD0C9040461C
:1033A0000B99FFF743FD0B9054F827800FFA88F034
:1033B000801000904FEAA801009860F30F01884642
:1033C00054F82B000A900A9800B2801000900A99D5
:1033D0008910009860F30F010A9140460A99FFF79F
:1033E00003FD804641460C98FFF710FD44F8260087
:1033F00041460C98FFF71AFD0C9003984100059880
:1034000050F8210008900C99089800F0B5F94FEA9F
:1034100020490C99089800F09BF9069054F82780F1
:103420000FFA88F0801000904FEAA801009860F32E
:103430000F018846069869F30F0044F8270054F8F6
:103440002B000A900A9800B2801000900A99891007
:10345000009860F30F010A9140460A99FFF7E6FCD5
:10346000804641460B98FFF729FD0C9041460B988A
:10347000FFF7FEFC0B900399059850F82100099086
:103480000B99099800F078F94FEA20490B990998AF
:1034900000F05EF90690069869F30F0044F82A00E0
:1034A000039800EB4001059850F8210007900C9913
:1034B000079800F061F94FEA20490C99079800F04D
:1034C00047F90690069869F30F0044F82B0010990D
:1034D000039808440390761C0298401E02907FF4E3
:1034E0003BAF1098800010900E9880080190A8E0E3
:1034F0000495AD0800200390029097E00399059889
:1035000050F82100099003984100059850F82100D7
:103510000890039800EB4001059850F821000790AF
:103520001099039808440390029E79E0771907EBFD
:10353000050A0AEB050B54F8268054F82A000B9074
:1035400040460B99FFF750FC0C9040460B99FFF753
:103550006DFC0B9054F8278054F82B000A904046DD
:103560000A99FFF741FC804641460C98FFF74EFC54
:1035700081460FFA89F0401000904FEA69010098E7
:1035800060F30F01894644F8269041460C98FFF7F6
:103590005FFC0C900C99089800F0EEF84FEA204977
:1035A0000C99089800F0D4F8069054F827800698F3
:1035B00069F30F0044F8270054F82B000A904046A6
:1035C0000A99FFF733FC804641460B98FFF78CFCC5
:1035D0000C9041460B98FFF761FC0B900B990998F2
:1035E00000F0CAF84FEA20490B99099800F0B0F8AA
:1035F0000690069869F30F0044F82A000C99079882
:1036000000F0BAF84FEA20490C99079800F0A0F8AA
:103610000690069869F30F0044F82B0004980644BE
:103620000E98864282D30298401C0290681E02992E
:103630008842BFF463AF1098800010900198800812
:103640000190019804283FF653AF0495AD08002679
:1036500043E0771907EB050A0AEB050B54F82680BF
:1036600054F82A000B9040460B99FFF7BDFB0C90D5
:1036700040460B99FFF7DAFB0B9054F8278054F87B
:103680002B000A9040460A99FFF7AEFB8046414660
:103690000C98FFF7BBFB44F8260041460C98FFF757
:1036A000D7FB0C9054F827800C9844F8270054F866
:1036B0002B000A9040460A99FFF7B8FB8046414626
:1036C0000B98FFF7EBFB44F82A0041460B98FFF7F5
:1036D0000BFC44F82B000498064404990E98401AF9
:1036E000B042B6D211B0BDE8F08F70B504460D46B9
:1036F000A078012806D1A389218828466268FFF7AF
:103700001DFE05E0A389218828466268FFF73FFC7B
:10371000E078012805D1E28921882846A368FFF7CF
:10372000F3FB70BD01460814B0EBE13F04D047F64F
:10373000FF7080EAE170704708B2FCE710B50246FE
:10374000081413B2584313140CB203FB140010BD39
:1037500010B50246081413B2584313140CB203FBFD
:10376000040010BD10B5024610140B14584313B2D8
:103770000CB203FB040010BD10B5024610140B146C
:103780005843404213B20CB203FB040010BD0000CA
:103790002DE9F04704460E4615461F46DDF8208009
:1037A0004FF00009A8B22060C5F34E0060601948D0
:1037B000206119486061277284F809802068802898
:1037C0000BD0B0F5007F05D0B0F5006F08D1012017
:1037D000E06008E00420E06005E01020E06002E026
:1037E0004FF0FF3900BF00BFA661207A38B1626890
:1037F00091B201231A46A069FFF7BEFA06E062689B
:1038000091B201230022A069FFF7B6FA4846BDE84D
:10381000F087000046630008467300082DE9FF4F5B
:1038200083B004460D46DDE910682088690024F85D
:10383000110061886800401C24F81010059800EB06
:10384000880B069800EB88000290201D019068000C
:10385000801E04EB40000090012755E0DBF80010CB
:10386000019A106800F001F98246029A1168009AE4
:103870001068524600F0EEF8C0138246009A52F8E3
:1038800004090092029A11680A1403B25A430314FD
:103890000FFA81FC03FB1C229146019B01CB019393
:1038A0004A46DBF8001003140FFA81FC03FB0C23DB
:1038B0004FEA214C0FFA80FE0EFB0C3399460FFAAB
:1038C0008AF0790026F811004FEAE93001B2780059
:1038D000401C26F810100FFA8AF0A900022202FB01
:1038E000171126F811004FEAE930404201B2A80052
:1038F00002FB1700401C26F81010029800EB88000D
:1039000002900BEB880B7F1CAF42A7D32088618805
:10391000401A00B2690026F8110000216800401C1E
:1039200026F8101020886188084400B230800020FA
:10393000708007B0BDE8F08F2DE9FF4F83B00546DA
:103940000E4610980190059FDDF818802C4605EB77
:10395000860902963CE0D8F80010D9F8000000F083
:1039600084F8824639685246206800F073F84FEABE
:10397000E03A59F80409D8F800100A1403B25A437F
:1039800003140FFA81FC03FB0C22934602CCCBF10B
:103990000002386803140FFA81FC03FB1C234FEA72
:1039A000214C0FFA80FE0EFB0C339B464FEA4B0076
:1039B0006AF30F00019908600198001D01901198A9
:1039C00008EB8008119807EB80070298401E0290D0
:1039D00002980028BFD107B0BDE8F08F2DE9FC4167
:1039E00004460F461646A569207A012818D1E068DA
:1039F000CDE900603846D4E904236168FFF79CFFF5
:103A0000AB89298830466A68FFF798FC607A0128FC
:103A10001ED1EA8929883046AB68FFF775FA17E0AE
:103A2000AB89298838466A68FFF7B1FA607A0128BD
:103A300005D1EA8929883846AB68FFF765FAE0685E
:103A4000CDE900603846D4E904236168FFF7E6FE5B
:103A5000BDE8FC8130B5034618140C1400FB0420AB
:103A60001CB20DB204FB050030BD10B502461014A7
:103A70000B145843404213B20CB203FB040010BDB8
:103A80002DE9F04780460C4617464546BE0830E013
:103A900001CD4FF08E4101F065FA814601F0E6F963
:103AA00000F30F0024F8020B01CD4FF08E4101F01E
:103AB00059FA814601F0DAF900F30F0024F8020BFD
:103AC00001CD4FF08E4101F04DFA814601F0CEF963
:103AD00000F30F0024F8020B01CD4FF08E4101F0EE
:103AE00041FA814601F0C2F900F30F0024F8020BFD
:103AF000761E002ECCD107F003060CE001CD4FF06E
:103B00008E4101F02FFA814601F0B0F900F30F0069
:103B100024F8020B761E002EF0D1BDE8F087704726
:103B20007047704710B500F009F8006810BD10B577
:103B3000044600F003F8046010BD00000048704720
:103B40004031002000487047403100207546FFF7A3
:103B5000F9FFAE4605006946534620F0070085464A
:103B600018B020B5FFF7F6F8BDE820404FF000068A
:103B70004FF000074FF000084FF0000B21F0070155
:103B8000AC46ACE8C009ACE8C009ACE8C009ACE898
:103B9000C0098D4670470446AFF300802046FCF70D
:103BA000EEFA000000487047443100200149182017
:103BB000ABBEFEE72600020070472DE9F0414F1E24
:103BC00000EBC7010446D1E9000115461E4637F057
:103BD00006020DD02A46334600F08EFD7F1E04EB10
:103BE000C703D3E9002300F0A1FA37F00602F1D1B0
:103BF000022F25D0042F13D0062F18BFBDE8F08167
:103C00002A46334600F078FDD4E90A2300F08EFA04
:103C10002A46334600F070FDD4E9082300F086FA06
:103C20002A46334600F068FDD4E9062300F07EFA08
:103C30002A46334600F060FDD4E9042300F076FA0A
:103C40002A46334600F058FDD4E9022300F06EFA0C
:103C50002A46334600F050FDD4E90023BDE8F04188
:103C600000F064BA2DE9F04DCB4B002492B099429C
:103C700005DA21F000429A4201D807D130B112B0E2
:103C80004FF00102BDE8F04D01F017BBB1F5801F08
:103C900020DA02430DD0002917DA0120FFF747FF91
:103CA00012B00022BDE8F04D13461046114600F058
:103CB000F9BA0220FFF73BFF12B00022BDE8F04D39
:103CC00013461046B54900F0EDBA6FF035043622C0
:103CD00001F0F3FA04EB2152C1F31308B049A2F248
:103CE000FF33414401F4801282F07F6103EB2252E2
:103CF00081F04051009241EA08010022A94B00F0F6
:103D00003BFE044608F10200A74EC0F313000D4627
:103D10007E44032867D2D6E90023204600F01AFC2F
:103D20001ED10098002802BFD6E9000112B0BDE8FC
:103D3000F08D00F07AFC04460D469C4A9C4B00F046
:103D4000DBFC06460F469B4A9B4B2046294600F06B
:103D5000D3FC12B032463B46BDE8F04D00F0E6B968
:103D60004FF05532954B2046294600F0C5FC002205
:103D7000934B00F0F5FD07460E4622462B461046B3
:103D8000194600F0B9FC3A46334600F0B5FC064649
:103D900000980F46F0B100F048FC80468A46834AFE
:103DA000834B00F0A9FC32463B4600F0D9FD224689
:103DB0002B4600F0E1FD04460D467E4A7E4B404610
:103DC000514600F099FC12B022462B46BDE8F04D5A
:103DD00000F0D2BD0B4612B0324620462946BDE85F
:103DE000F04D00F0C9BD00224FF08043204600F0A6
:103DF0009DF902460B462046294600F053FA064636
:103E00000F46009800F011FCCDE9040132463B4614
:103E10001046194600F070FC0C906A480A9108EBB5
:103E2000000201920C9A0B46104600F065FC824697
:103E3000024665488B46C8F151080B4608F5D7285D
:103E400003217844FFF7B9FE52465B4600F054FC6C
:103E50000E905E48089152465B4604217844FFF775
:103E6000ACFE0A9B0C9A00F047FC019A089B42EAC0
:103E700008080E9A00F05AF983460991B8F1000F2C
:103E80004EDD4FF0FF322046294601F016FA224659
:103E90002B4600F031FC804600988A4660B3DDE98D
:103EA0000401424A424B00F027FC0B9100905A4615
:103EB00040465146099B00F039F932463B4600F036
:103EC0001BFC0B9B009A00F031F94246534600F070
:103ED00047FD22462B4600F04FFD05460C46DDE926
:103EE0000401344A344B00F007FC12B02A46234642
:103EF000BDE8F04D00F040BD5A464046099B00F039
:103F000015F932463B4600F0F7FB4246534600F0B7
:103F100027FD12B022462B46BDE8F04D00F020BD33
:103F2000009840B3DDE90401204A214B00F0E4FB96
:103F3000824688465A4620462946099B00F01CFDC9
:103F400032463B4600F0D8FB5246434600F014FD93
:103F500022462B4600F010FD04460D46DDE9040123
:103F6000144A154B00F0C8FB12B022462B46BDE8A0
:103F7000F04D00F001BD0B465A462046294600F0A0
:103F8000FBFC32463B4600F0B7FB12B022462B4604
:103F9000BDE8F04D00F0E4BC0000F07F0000F0BF91
:103FA000645F09000000F03FEC490000763C793581
:103FB000EF39EA3D0000E0FE422EE63F5555D53F81
:103FC0000000E03F86EBF9FF8248000080480000D7
:103FD0002DE9F041044634480025814205DA21F0FC
:103FE0000042824201D807D134B12046BDE8F041F9
:103FF0004FF0010201F061B9B1F5801F21DA52EAF8
:1040000004000CD0002915DA0120FFF790FDBDE86F
:10401000F041002213461046114600F043B9022039
:10402000FFF785FDBDE8F0410022134610461F4909
:1040300000F038B96FF035053622204601F03DF921
:10404000044605EB2150A0F2FF32D00F40F2FF33BF
:104050001B1A0D4663F31F55104400F0E6FA07469D
:104060000E4629462046FFF7FDFD114A114B00F090
:1040700043FB05460C46104A104B3846314600F0CB
:104080003BFB2A46234600F051F805460C460C4AF5
:104090000C4B3846314600F02FFB2A462346BDE83C
:1040A000F04100F043B800000000F07F0000F0BFD6
:1040B0000EE526157BCBDB3F362BF111F3FE593D88
:1040C00000609F501344D33F21F00042A2F16052A0
:1040D000B2F5801F01F0004328BFD2F17F6C0BD9ED
:1040E0005FEA001C43EAC20242EB507018BF7047FF
:1040F00028BF20F001007047B2F5801FBCBF1846F2
:1041000070474FEA410C1CF5001F02D2084600F030
:10411000F7BF70B500F09AFB00000089FFF7F6BF0B
:104120004FF00040A0F580007047000010B591EA04
:10413000030F48BF83F0004300F12684841A71EB1B
:10414000030C05D2121943EB0C03001B61EB0C01AD
:10415000DFF824E14FEA1154A4EB135C1EEA430F8D
:1041600018BF9EEA445F73D023EA0E03DCF1200EF1
:1041700021EA045143F4801332D322FA0CFE10EBEF
:104180000E0023FA0CFE41EB0E01CCF1200E03FAD7
:104190000EFE10EB0E0051F10001B1F5801FCCF1C5
:1041A000200E32D201EB045112FA0EF2BDE810409B
:1041B00058BF7047401C38BF5FEA420218BF7047C3
:1041C000002814BF20F0010041F100014FEA410333
:1041D00013F5001F38BF7047A1F1C04100F084BB48
:1041E000012A43EB0302ACF1200CDCF11F0E32BFBD
:1041F0004FF0000E23FA0CF310EB030041EB0451D7
:10420000B4EB115FD0D0A1EB045101F58011490846
:104210005FEA300001EB04510ED350F1000038BFCB
:1042200012FA0EFE08D1BDE81040C9E7401C38BFA5
:104230005FEA4202CAD1C3E7BDE810404FEA41033A
:1042400013F5001F38BF7047A1F1C04100F04CBB0F
:104250009EEA445F08D011EA5E0FBDE8104004BF3B
:1042600001F0004100207047BDE8104070B500F03B
:10427000EDFA00BF64FBBE3E0000E0FF02494FF0D4
:10428000000000F0E8BF00BF0000F87F491058BFF1
:10429000C1F140415B1058BFC3F140438B42EFF383
:1042A000008070472DE9C04130B4DFF8A0C23CEA7D
:1042B000111418BF3CEA131400F0EC8081EA0305E6
:1042C0001CEA111444EAD57418BF1CEA131500F057
:1042D000C780A4EB05044FF0004545EAC12145EA3B
:1042E000C32341EA505143EA525304F17F74994287
:1042F00004F500344FEAC0204FEAC22208BF9042C2
:1043000000F09C804FEA13650FF24016765D4FEA8D
:10431000134506FB05F7C7F1807706FB07F74FEA61
:10432000D737A7FB03687642C8F58038A7FB06CECF
:1043300038BFA8F1010807FB08E64FF0000EA6FB06
:10434000028CE6FB03CEDCF1000CCEF1004E38BF50
:10435000AEF1010EA6FB0C584FF000074FF0000520
:10436000E6FB0E87A1FB08C6A0FB07CE16EB0E06E8
:1043700045F10005E1FB076515F1E04E7EBFA4F5B0
:1043800080345FEA46066D4116F1800745F100056D
:104390004FEA17274FEA066647EA0567A6F1DE46A9
:1043A000B6F1805F4FEA15251FD9384624F0010C7D
:1043B00005EBC471BCF1FE6F01EB0C1102D8F0BC2F
:1043C000BDE8008124425CBF01F5801E9EEAC47FE7
:1043D00002D4F0BCBDE80081244238D4F0BCA1F185
:1043E000C041BDE8004100F07FBA4FEAD22242EA64
:1043F00043524FEAD323A7FB02864FEAD02040EA7C
:10440000415007FB03661EEA0E0F4FEAD12105FB60
:10441000026658BFA6EB0056B6EB00564FEA520EA6
:104420004EEAC37E18EB0E0E56EB530EBDD518EBBD
:1044300002085E417F1C55F10005B6E74FF4801578
:104440004FF000074FF000064FF00008ADE7F0BC5A
:104450004FF0000001F1C04101F00041BDE80081D2
:1044600011EA0C1F0CEA131500D00CE013EA0C1F24
:1044700000F025804FF00000F0BC81EA030101F05C
:104480000041BDE80081F0BCBDE8004181EA0301C4
:1044900000F02ABAF0BCBDE8004170B500F0D6F9D2
:1044A000097EFC3E00F007B881EA03014FF00000EE
:1044B00001F00041704781EA030100F015BAF0BC39
:1044C000BDE800414FF0000021497047FFFDFBF9B6
:1044D000F7F5F4F2F0EEEDEBE9E8E6E4E3E1E0DE37
:1044E000DDDBDAD8D7D5D4D3D1D0CFCDCCCBCAC8A9
:1044F000C7C6C5C4C2C1C0BFBEBDBCBBBAB9B8B7D0
:10450000B6B5B4B3B2B1B0AFAEADACABAAA9A8A8C2
:10451000A7A6A5A4A3A3A2A1A09F9F9E9D9C9C9B90
:104520009A9999989797969595949393929191903B
:104530008F8F8E8E8D8C8C8B8B8A898988888787CC
:104540008685858484838382828181800000FF0741
:104550000000F87F51EA030C17D41CF5801F58BFE8
:10456000BCF5801F00F10680994218BF704708BF54
:104570009042704707D711F5801F58BF13F5801F71
:1045800019D499427047894270471CF5801F08D59D
:10459000BCF5801FF7D58B4218BF704708BF824219
:1045A00070474FF4001C1CEB410F38BF1CEB430F4E
:1045B00001D28B42704770B500F048F9922449004F
:1045C0004FF000514FF08053FFF760BE4FEA4103B8
:1045D0004FEA5353A3F58063D3F11E03C8BFD3F151
:1045E000210C0CDD4FF0004242EAC12242EA505257
:1045F00032FA03FC8CEAE17CACEBE1707047102BE3
:10460000C4BF0020704703F5787CBCF1FF3F04D0A5
:104610006FF0004282EA2100704770B500F016F991
:104620004992248000207047F2E710F0004248BF12
:104630004042B0FA80F310FA03F10AD0C3F11D032F
:1046400003F580634FEA415002EB035202EBD121A4
:1046500070474FF000007047B0FA80F310FA03F192
:104660000AD0C3F11D0303F580634FEA41504FEABE
:10467000035202EBD12170474FF000007047000059
:1046800051EA030C17D41CF5801F58BFBCF5801FDE
:1046900000F10680994218BF704708BF90427047EA
:1046A00007D711F5801F58BF13F5801F19D4994201
:1046B0007047894270471CF5801F08D5BCF5801FE4
:1046C000F7D58B4218BF704708BF824270474FF43E
:1046D000001C1CEB410F38BF1CEB430F01D28B4277
:1046E000704770B500F0B2F8922449004FF00051C5
:1046F0004FF08053FFF7CABDDFF848C170B51CEA20
:10470000111E1EBF1CEA13159EEA0C0F95EA0C0F32
:1047100000F06F8081EA030423EA4C134EEAD47E52
:1047200021EA4C1141F4801143F48013AE44A1FB03
:10473000024CA0FB0365AEF17F7E361955EB0C05EC
:10474000A1FB034C4CF10003A0FB021C16EB0C0672
:10475000654153F10003094218BF46F0010613F406
:10476000007F0BD14FEA03314FEA0530340341EAB1
:10477000155140EA16506FF003020AE04FEAC321D8
:104780004FEAC520F40241EA555140EA56506FF015
:10479000020202EB2E4201EB025585EACE710AD0ED
:1047A0005FEA440C18BF24F0004450F1000041F1CE
:1047B000000120EAD47040F2FE7C624500D270BD58
:1047C000A84214BF4FF080444FF04044002E08BF71
:1047D0000024BEF1806FA8BFA1F1C041BDE87040C8
:1047E00080F282804FF0000001F1C04101F00041F1
:1047F00070479EEA0C0F0CEA131518BF95EA0C0FD0
:1048000006D04FF0000081EA030E0EF0004170BDAB
:1048100000F01CF88900013E00F007B800F009B86C
:104820004FEA430C5FEA5C5C08D081EA030100F0C8
:104830005BB84FEA410C5FEA5C5CF6D14FF00000D8
:10484000014970470000FF070000F87F0EF1020EDB
:104850002EF0030E5EF8046B364205D4012A43EBBA
:10486000030515F5001F12D8012841EB010C1CF5BA
:10487000001F0CD80ED14FEAD17C15F5001F0CEBB0
:104880004C0C0CF1020C08BF4CEBD37C04E04FF055
:10489000080C01E04FEAD37C0CEB4C0526FA05F638
:1048A00006F00706B6F1040C06D20EEB860CBDE846
:1048B00070404CF0010C6047DFE80CF0090B02027D
:1048C0004FF000414FF00000A1F5002170BD1946E6
:1048D0001046012851EB010418BFD4F5001484BF21
:1048E000002001F0004170BD0808A0F500114FEA5A
:1048F0003101704753EA010C17D41CF5801F58BFD3
:10490000BCF5801F00F106808B4218BF704708BFBE
:104910008242704707D713F5801F58BF11F5801FDB
:1049200019D48B4270479B4270471CF5801F08D5F5
:10493000BCF5801FF7D5994218BF704708BF904259
:1049400070474FF4001C1CEB430F38BF1CEB410FAA
:1049500001D2994270470FB40CBC03BCFFF7C1BE33
:1049600091EA030F10B581F000413FF5E7AB83F00A
:10497000004300F009B8000010B591EA030F48BFEA
:1049800083F000433FF5DAAB841A71EB030C07D2D6
:1049900012198CF0004C43EB0C03001B61EB0C0173
:1049A000DFF8A4E14FEA1154A4EB135C1EEA430FB5
:1049B00018BF9EEA445F00F0B08023EA6E035242C3
:1049C00021EA0451C3EB6E0338BF5B1EDCF1200EFD
:1049D00025D322FA0CFE10EB0E0043FA0CFE41EB3D
:1049E0000E01CCF1200E03FA0EFE10EB0E0051F179
:1049F0000001CCF1200E29D412FA0EF201EB045181
:104A0000BDE8104058BF7047401C1CBFB2F1004FBA
:104A1000704700280CBF491C20F00100704712EBC2
:104A2000020E43EB030218BF4FF0010E4EEA4202A2
:104A3000ACF1200CDCF11E0E54D943FA0CFE10EB45
:104A40000E0051F1FF31CCF11E0ED5D50EF1010E45
:104A500012FA0EFE404141EB010101EB445C5FEABA
:104A60005C5C10D910EBDE7001EB045138BFBEF175
:104A7000004FBDE8104018BF704700280CBF491C0C
:104A800020F00100704730D24FEAD42C11F500110C
:104A900024F400641BD0B1FA81F20B3AA41AA41ECC
:104AA000D2F12003914030FA03F31943904001EB17
:104AB000CC71002C01EB0451BDE81040A8BF704739
:104AC00001F1C0414FF0000001F000417047B0FA21
:104AD00080F310FA03F100D110BDE41A173C480529
:104AE000C90AE4E701EB045110BD491001EB045180
:104AF000BDE810404FEA300002E04FF0000170477F
:104B00004A0008BF0042F8D0B2F5001F28BF704726
:104B100001F000414FF0000070479EEA445F07D06B
:104B200011EA5E0FBDE8104004BF0021002070476D
:104B3000BDE8104070B5FFF789FE00BF40DFF63ECC
:104B400083F00041104670470000E0FF43004FEA49
:104B5000D30C4FEA3C0C43401FBF40070CF160519F
:104B600013F0FE4F70471CF0006F03D100200CF0D3
:104B7000004170470CF0004343EA507010B540EA22
:104B8000CC0000F070FA00BF000000924FEA000174
:104B9000FFF7AABE4FF000414FF00000A1F5002141
:104BA0007047000090EA010F48BF81F0004100F11A
:104BB000E482421A3CBF801A89184FEAD0524FF063
:104BC0007F4C1CEA410FA2EBD15318BF9CEA026F45
:104BD00000F03B804FF0004C4CEA00204CEA0121F1
:104BE00021FA03FC10EB0C0C1ED202F1FF325FEA3B
:104BF0001C2040EBC25038BF70471CF07F0F4FEABB
:104C0000400C18BFBCF17F4F38BF7047C3F1200381
:104C1000994008BF20F00100BCF17F4F38BF7047BA
:104C2000A0F1C04000F06CBA4FEA3C00000A40EB33
:104C3000C25028BF1CF0FF0F4FEA400CE6D018BF4F
:104C4000BCF17F4F38BF7047EAE79CEA026F05D09E
:104C500010EA5C0F08BF00F00040704710B500F08C
:104C600002FA00BF64FBBE3E401058BFC0F1404096
:104C7000491058BFC1F140418142EFF300807047B5
:104C80004FF47F0C1CEAD0121EBF1CEAD11392EA2B
:104C90000C0F93EA0C0F00F0858090EA010F48BFDB
:104CA00042F4807240F4000C41F400002CF07F418B
:104CB00020F07F4000B58142A2EB03020FF2081CF6
:104CC000ACEB504EC0F100009EF800E04FEA4E0EF3
:104CD00000FB0EFC38BF49004FEA2C1C02F5FA021B
:104CE0000CFB0EF34FEACE1E4FEA112C4FEAC12106
:104CF0000EEB635E42EB22420EFB0CFC4FEA1C53B0
:104D000000FB03114FEA112C4FEA01310EFB0CFCA2
:104D10004FEADC4C00FB0C11C14228BF09184CEBD8
:104D200003335DF804EB10EB410143EBC250B2F5E5
:104D30007C0F38BF704729D512F0F00F1CBF00F16F
:104D4000C04000F0004070470081828384858687E0
:104D500088898B8C8D8E8F919293959697999A9C3A
:104D60009D9FA0A2A3A5A7A8AAACAEB0B2B3B5B7A9
:104D7000B9BCBEC0C2C5C7C9CCCED1D4D7D9DCDF7F
:104D8000E2E6E9ECF0F3F7FAFE0000004FEA400C2F
:104D90000CF1807CBCF17E4F28BF7047B0F1C04061
:104DA00000F0AEB990EA010F0CEAD11348BF42F40B
:104DB0008072624538BF634507D213F47F0F16D067
:104DC00080EA010000F00040704710B500F04BF998
:104DD000097EFC3E00F005B880EA010000F00040CA
:104DE000704780EA010000F0004000F089B912F439
:104DF0007F0F04BF0248704780EA010000F080B9CD
:104E00000000C07F50EA010C00F113801CF5000F78
:104E100058BFBCF5000F01D48842704707D710F582
:104E2000000F58BF11F5000F15D488427047894212
:104E300070471CF5000F04D5BCF5000FF7D5814273
:104E400070474FF0807C1CEB400F38BF1CEB410FCC
:104E500001D28142704710B500F005F99224490053
:104E60004FF000504FF08051FFF7FEBE41000B0E97
:104E7000D3F19E0208D950F400034FEA032323FA2A
:104E800002F048BF4042704710B500F0ECF800BF98
:104E900049922480002070476FF0004282EA20008F
:104EA0007047000010F0004148BF4042B0FA80F364
:104EB00010FA03F2C3F19D030BD051EAC35101EB89
:104EC0001220530638BF704700F1010008BF20F0E0
:104ED00001007047B0FA80F310FA03F2C3F19D03AA
:104EE0000AD0D90501EB1220530638BF704700F1F4
:104EF000010008BF20F001007047000050EA010CDB
:104F000000F113801CF5000F58BFBCF5000F01D451
:104F10008842704707D710F5000F58BF11F5000FF2
:104F200015D488427047894270471CF5000F04D59C
:104F3000BCF5000FF7D5814270474FF0807C1CEB29
:104F4000400F38BF1CEB410F01D28142704710B5B2
:104F500000F089F8922449004FF000504FF0805142
:104F6000FFF782BE4FF47F0C1CEAD0121EBF1CEA72
:104F7000D11392EA0C0F93EA0C0F00F0478090EAED
:104F8000010F48BF42F480724FF0004C4CEA002001
:104F90004CEA012102EB0302A0FB0113A2F500027F
:104FA000002918BF43F001035B0028BF4FEA330319
:104FB00042EB22425FEA132C4CEBC2502EBFBCEBFB
:104FC000436FB2F57C0F70474FEA036CBCF1004FA2
:104FD00008BF20F00100B2F57C0F38BF70470BD539
:104FE00082F0FF0212F5803FC8BF704700F1C04059
:104FF000D8BF00F00040704700F5000C5FEA4C0C91
:1050000048BF7047B0F1C04000F07AB890EA010F95
:105010000CEAD11348BF42F48072624538BF634541
:1050200004D280EA010000F00040704710B500F0A3
:105030001AF800BF8900013E00F007B800F009B877
:105040005FEA410C5FEA1C6C08D080EA010000F0C6
:1050500057B85FEA400C5FEA1C6CF6D14FF0004095
:10506000A0F5800070470EF1020E2EF0030E5EF8E0
:10507000044B244204D44FEA4102B2F17F4F11D8CD
:105080004FEA4003B3F17F4F0CD80ED14FEAD07CEA
:10509000B2F17F4F0CEB4C0C0CF1020C08BF4CEB47
:1050A000D17C04E04FF0080C01E04FEAD17C0CEB1E
:1050B0004C0324FA03F404F00704B4F1040C06D200
:1050C0000EEB840CBDE810404CF0010C6047DFE8AB
:1050D0000CF0070802024FF00040A0F5800010BD60
:1050E0000846420018BFD2F1807288BF00F000402D
:1050F00010BD10B5FEF756FD4FF00001016010BD68
:10510000FF2141EAD050C005704751EA000C00F180
:1051100013801CF5000F58BFBCF5000F01D481426D
:10512000704707D711F5000F58BF10F5000F15D4C1
:1051300081427047894270471CF5000F04D5BCF5C9
:10514000000FF7D5884270474FF0807C1CEB410F71
:1051500038BF1CEB400F01D28842704780EA010043
:1051600081EA000180EA0100FFF7F1BE90EA010F39
:1051700048BF81F000413FF51CAD421A04D882F0CF
:105180000042A0EB020011444FEAD0524FF07F4C96
:105190001CEA410FA2EBD15318BF9CEA026F4AD020
:1051A0004FF0004C4CEA00204CEA012121FA03FCAC
:1051B000B0EB0C0C0FD412F0FE0F36D05FEA4C00AF
:1051C0001DD5001240EBC25038BF70471CF03F0F96
:1051D00018BF70470BE0A2F101025FEA1C2040EB10
:1051E000C25038BF70471CF07F0F18BF7047C3F123
:1051F0002003994014BF401E20F001007047800832
:105200004FEA122308BF7047B0FA80FCA2EB0C02F1
:10521000CCF1280C60FA0CF093EA122F04BF00EBDB
:10522000C25070474FEAC3707047130A5FEADC1040
:1052300008BF7047F6E79CEA026F04D010EA5C0FE3
:1052400008BF0020704710B5FFF70DFF40DFF63EA6
:1052500081F0004070470CF00F03092B08BF0820B5
:1052600000F059800A2B0BD0082B18BF704708BFDD
:105270001CF0400F0AD04FF000004FF000017047C3
:105280001CF0400F18BF4FF0004070471CF0100F8B
:1052900008D020F0704300F07F4242EAD3014FEA89
:1052A0004370704700F0604021F07F4242EA000204
:1052B00001F07F4040EA727070474FF0FF0C4CF4F1
:1052C000E06C1CEA11531CBF9CEA030C9445C2BF5E
:1052D000DA4201EB02517047002B0DD0BCF1000FF8
:1052E0000FD0002A01F00041A4BF41F0E04141F09D
:1052F0007F614FF00000704701F000414FF0000067
:10530000704750EA01334FF09B0C18BF4CF0806C93
:105310007EF4B4AF70471CF4801F11D01CF4E02F52
:1053200003D06FEACC31490070474FF04050EFF3A3
:10533000008222F0704242EA000282F30088704745
:105340004FF000007047FF7F0000FF7FC900FE7F25
:105350009201FA7F5B02F67F2403F17FED03EA7F7F
:10536000B604E27F7F05D97F4806CE7F1107C27F52
:10537000D907B57FA208A77F6B09987F330A877F7B
:10538000FB0A757FC40B627F8C0C4E7F540D387FF7
:105390001C0E227FE40E0A7FAB0FF07E7310D67EC8
:1053A0003A11BA7E01129D7EC8127F7E8F13607EF5
:1053B00055143F7E1C151E7EE215FB7DA816D67D7A
:1053C0006E17B17D33188A7DF918637DBE193A7D59
:1053D000831A0F7D471BE47C0C1CB77CD01C897C96
:1053E000931D5A7C571E2A7C1A1FF97BDD1FC67B32
:1053F0009F20927B62215D7B2422277BE522EF7A2E
:10540000A723B77A67247D7A2825427AE825067A89
:10541000A826C97968278A7927284A79E5280A7948
:10542000A429C878622A85781F2B4078DC2BFB776B
:10543000992CB477552D6C77112E2377CC2ED976F5
:10544000872F8E7642304276FC30F475B531A675E2
:105450006E32567527330575DF33B3749734607435
:105460004E350B740436B673BA365F7370370873F3
:105470002538AF72D93855728D39FA71403A9E711C
:10548000F33A4171A53BE370573C8370083D2370AC
:10549000B83DC26F683E5F6F173FFB6EC63F976EA9
:1054A0007440316E2141CA6DCE41626D7A42F96C11
:1054B00026438F6CD143246C7B44B86B24454B6BE3
:1054C000CD45DD6A75466E6A1D47FD69C4478C6926
:1054D0006A481A690F49A768B4493268584ABD67D3
:1054E000FB4A47679E4BD066404C5766E14CDE65F1
:1054F000814D6465214EE964C04E6C645E4FEF637C
:10550000FB4F71639850F26234517262CF51F16176
:1055100069526F610353EC609B5368603354E45FDE
:10552000CA545E5F6055D75EF655505E8A56C85DB8
:105530001E573E5DB157B45C4358295CD4589D5BFF
:105540006459105BF459825A825AF459105B6459B9
:105550009D5BD458295C4358B45CB1573E5D1E57DF
:10556000C85D8A56505EF655D75E60555E5FCA5478
:10557000E45F335468609B53EC6003536F6169527E
:10558000F161CF5172623451F26298507163FB4FF6
:10559000EF635E4F6C64C04EE964214E6465814DDB
:1055A000DE65E14C5766404CD0669E4B4767FB4A30
:1055B000BD67584A3268B449A7680F491A696A48F2
:1055C0008C69C447FD691D476E6A7546DD6ACD4525
:1055D0004B6B2445B86B7B44246CD1438F6C2643C2
:1055E000F96C7A42626DCE41CA6D2141316E7440D0
:1055F000976EC63FFB6E173F5F6F683EC26FB83D48
:105600002370083D8370573CE370A53B4171F33A2A
:105610009E71403AFA718D395572D938AF7225387A
:10562000087370375F73BA36B67304360B744E3531
:1056300060749734B374DF330575273356756E3253
:10564000A675B531F475FC30427642308E76872FE0
:10565000D976CC2E2377112E6C77552DB477992CD3
:10566000FB77DC2B40781F2B8578622AC878A42929
:105670000A79E5284A7927288A796827C979A826E6
:10568000067AE825427A28257D7A6724B77AA72307
:10569000EF7AE522277B24225D7B6221927B9F208B
:1056A000C67BDD1FF97B1A1F2A7C571E5A7C931D6F
:1056B000897CD01CB77C0C1CE47C471B0F7D831AB3
:1056C0003A7DBE19637DF9188A7D3318B17D6E1756
:1056D000D67DA816FB7DE2151E7E1C153F7E551457
:1056E000607E8F137F7EC8129D7E0112BA7E3A11B2
:1056F000D67E7310F07EAB0F0A7FE40E227F1C0E65
:10570000387F540D4E7F8C0C627FC40B757FFB0A73
:10571000877F330A987F6B09A77FA208B57FD907D7
:10572000C27F1107CE7F4806D97F7F05E27FB6048E
:10573000EA7FED03F17F2403F67F5B02FA7F92019B
:10574000FE7FC900FF7F0000FF7F37FFFF7F6EFEF7
:10575000FE7FA5FDFA7FDCFCF67F13FCF17F4AFBA0
:10576000EA7F81FAE27FB8F9D97FEFF8CE7F27F898
:10577000C27F5EF7B57F95F6A77FCDF5987F05F5DB
:10578000877F3CF4757F74F3627FACF24E7FE4F167
:10579000387F1CF1227F55F00A7F8DEFF07EC6EE38
:1057A000D67EFFEDBA7E38ED9D7E71EC7F7EABEB51
:1057B000607EE4EA3F7E1EEA1E7E58E9FB7D92E8A9
:1057C000D67DCDE7B17D07E78A7D42E6637D7DE545
:1057D0003A7DB9E40F7DF4E3E47C30E3B77C6DE21D
:1057E000897CA9E15A7CE6E02A7C23E0F97B61DF31
:1057F000C67B9EDE927BDCDD5D7B1BDD277B59DC7F
:10580000EF7A99DBB77AD8DA7D7A18DA427A58D902
:10581000067A98D8C979D9D78A791BD74A795CD6BC
:105820000A799ED5C878E1D4857824D4407867D3A6
:10583000FB77ABD2B477EFD16C7734D1237779D0C3
:10584000D976BECF8E7604CF42764BCEF47592CD0C
:10585000A675D9CC567521CC057569CBB374B2CA7F
:105860006074FCC90B7446C9B67390C85F73DBC71C
:10587000087327C7AF7273C65572C0C5FA710DC5DC
:105880009E715BC44171A9C3E370F8C2837048C2C2
:10589000237098C1C26FE9C05F6F3AC0FB6E8CBFC6
:1058A000976EDFBE316E32BECA6D86BD626DDABCE8
:1058B000F96C2FBC8F6C85BB246CDCBAB86B33BA27
:1058C0004B6B8BB9DD6AE3B86E6A3CB8FD6996B77D
:1058D0008C69F1B61A694CB6A768A8B5326805B5E7
:1058E000BD6762B44767C0B3D0661FB357667FB267
:1058F000DE65DFB1646540B1E964A2B06C6405B0F7
:10590000EF6368AF7163CCAEF26231AE726297AD95
:10591000F161FDAC6F6165ACEC60CDAB686036AB3E
:10592000E45FA0AA5E5F0AAAD75E76A9505EE2A8ED
:10593000C85D4FA83E5DBDA7B45C2CA7295C9CA6A2
:105940009D5B0CA6105B7EA5825AF0A4F45963A45B
:105950006459D7A3D4584CA34358C2A2B15738A214
:105960001E57B0A18A5629A1F655A2A060551CA0C9
:10597000CA54989F3354149F9B53919E03530F9E78
:1059800069528E9DCF510E9D34518F9C9850119C21
:10599000FB4F949B5E4F179BC04E9C9A214E229AC0
:1059A000814DA999E14C3099404CB9989E4B439850
:1059B000FB4ACE97584A5997B449E6960F497496D0
:1059C0006A480396C44792951D4723957546B5943A
:1059D000CD4548942445DC937B447193D143079390
:1059E00026439E927A423692CE41CF9121416991CF
:1059F00074400591C63FA190173F3E90683EDD8FF1
:105A0000B83D7D8F083D1D8F573CBF8EA53B628EF4
:105A1000F33A068E403AAB8D8D39518DD938F88CDA
:105A20002538A18C70374A8CBA36F58B0436A08B9A
:105A30004E354D8B9734FB8ADF33AA8A27335A8A37
:105A40006E320C8AB531BE89FC30728942302789AA
:105A5000872FDD88CC2E9488112E4C88552D0588F3
:105A6000992CC087DC2B7B871F2B3887622AF68610
:105A7000A429B686E5287686272837866827FA85FA
:105A8000A826BE85E82583852825498567241185B4
:105A9000A723D984E522A38424226E8462213A8438
:105AA0009F200784DD1FD6831A1FA683571E778386
:105AB000931D4983D01C1C830C1CF182471BC6829A
:105AC000831A9D82BE197682F9184F8233182A8272
:105AD0006E170582A816E281E215C1811C15A0810E
